:020000040800F2
:1000000078060020B5010008050700089D060008D5
:100010000107000885030008810C000800000000AB
:10002000000000000000000000000000F1080008CF
:100030008904000800000000310800088109000858
:10004000CF010008CF010008CF010008CF01000850
:10005000CF010008CF010008CF010008CF01000840
:10006000CF010008CF010008CF010008CF01000830
:10007000CF010008CF010008CF010008CF01000820
:10008000CF010008CF010008CF010008CF01000810
:10009000CF010008CF010008CF010008B10400081B
:1000A000CF010008CF010008CF010008CF010008F0
:1000B000950A0008CF010008CF010008CF01000811
:1000C000CF010008CF010008CF010008CF010008D0
:1000D000CF010008CF010008CF010008CF010008C0
:1000E000CF010008CF010008CF01000800F002F89E
:1000F00000F050F814A696E8000CB244B344DA4578
:1001000001D100F047F8BAE80F000FA696E83000DA
:10011000A5EB040504EB0607AAEB0704A7F101070A
:100120004FEA15154FEA3414A4F10104AC4201D38F
:1001300000F030F813F0010F18BFFB1A43F0010371
:1001400000F001F8DBE7184788160000A816000049
:10015000103A24BF78C878C1FAD8520724BF30C8F3
:1001600030C144BF04680C60704700007047000055
:100170000023002400250026103A28BF78C1FBD8B0
:10018000520728BF30C148BF0B6070471FB51FBD65
:1001900010B510BD00F031F81146FFF7F7FF00F081
:1001A000C7FF00F04FF803B4FFF7F2FF03BC00F005
:1001B00057F800000948804709480047FEE7FEE776
:1001C000FEE7FEE7FEE7FEE7FEE7FEE7FEE7FEE707
:1001D00004480549054A064B704700008509000898
:1001E000ED0000087800002078060020780200204A
:1001F00078020020704770477047754600F02CF871
:10020000AE4605006946534620F00700854618B003
:1002100020B5FFF7DDFFBDE820404FF000064FF0AE
:1002200000074FF000084FF0000BAC46ACE8C009E7
:10023000ACE8C009ACE8C009ACE8C00921F007018E
:100240008D46704710B50446AFF300802046BDE8E8
:100250001040FFF7A8BF00000048704710000020C2
:1002600001491820ABBEFEE72600020070470000DF
:100270008268002922F0010218BF013282607047B3
:100280008068C0F380007047C06C80B27047000087
:100290000068084018BF0120704700008068C0F364
:1002A000C000704780B542684FF6FF63CFF6F07329
:1002B00002EA030C0B680A7943EA0C0343EA0222C0
:1002C000426082684FF2FD73CFF6F1731A40D1E9B4
:1002D00002C391F805E01A4342EA0C0242EA4E02D8
:1002E0008260C26A097C22F470020139C9B242EA12
:1002F0000151C16280BD0000B0B501EB410C4FF06F
:10030000100E092988BFACF11E0C88BF4FF00C0EEF
:1003100050F80E40072505FA0CF5AC4303FA0CF330
:1003200023432C256FF0400440F80E300D2A38BFCF
:10033000302538BF6FF0220402EB8203072A3CBF4E
:1003400034256FF004041A1943591F249440A34321
:10035000914019434151B0BD816841F0080181606D
:10036000704700008268002922F4A00218BF02F53D
:10037000A002826070470000816841F00401816042
:1003800070470000FEE7000080B582B00820012120
:1003900000F05CFA44F20000C1F20340019040F624
:1003A0000040C4F2010001A900F00EF902B080BDC6
:1003B00010B540F60044C4F2010420464FF48041D9
:1003C000002200F065F9142000F060F820464FF498
:1003D0008041012200F05CF920464FF4804100F09A
:1003E00051F90028F8D100BF20464FF4804100F0B9
:1003F00049F90028F8D000BF20464FF4804100F0B2
:1004000041F90028F8D110BDF0B581B040F60044A4
:100410000546C4F20104FFF7CBFF002603E000BF4E
:100420000136052E26D0002704E0072F07F101072B
:10043000F6D200BF20464FF4804100F023F9002897
:10044000F8D0282000F022F8A85D4FF48041400049
:10045000A855204600F016F90128E6D1A85D013024
:10046000A85500BF20464FF4804100F00BF9012849
:10047000F8D0DAE720464FF4804100F003F9002875
:10048000F8D001B0F0BD0000704700004EF210013E
:1004900000EBC000CEF20001C00048600020886080
:1004A000052008600868C003FCD504200860704778
:1004B00010B5202000F028F8012818BF10BD40F624
:1004C0000044C4F201042046202100F0DBF801289A
:1004D00004D140F20000C2F2000008E020462021D2
:1004E00000F0D0F828B940F20600C2F2000000F097
:1004F0002FFA2020BDE81040AFF3008040F21441F5
:10050000C4F201010860704740F20041C4F20101E9
:100510000A6849690240084018BF0120002A18BF34
:1005200001221040704700008179002940F200410B
:10053000C4F201011FD002680B6893430B604B6843
:1005400093434B60037943EA010CDCF800301A4313
:10055000CCF8002002688B6893438B60CB68934390
:10056000CB60407910280ED1886810438860C86835
:100570001043C86070470279006811430A6822EA94
:10058000000008607047084301681143016070472C
:1005900010B50C2240F2080E02EA810201F0FC01C3
:1005A000C4F2010E4FF00F0C51F80E400CFA02F39A
:1005B00024EA030341F80E3051F80E3090401843FE
:1005C00041F80E0010BD0000CA7802F00F0CD306EF
:1005D00044BF8B784CEA030C2DE9F04709880B06E1
:1005E00025D082465AF8145B00F1100E00264FF019
:1005F00001094FF00F08002706E000BF1C6001371B
:10060000082F06F1040611D009FA07F40C42F6D0BF
:1006100008FA06F325EA03030CFA06F51D43282A17
:100620005346EBD0482AEAD17346E7E70560B1F5B7
:10063000807F38BFBDE8F087436800F1100E00F1FD
:10064000140A082500264FF001094FF00F0805E0B5
:1006500027600135102D06F1040610D009FA05F7C0
:100660000F42F6D008FA06F4A3430CFA06F423432B
:10067000282A5446ECD0482AEBD17446E8E7436078
:10068000BDE8F0878068084018BF0120704700006F
:100690001023002A08BF1423C1507047FEE7000052
:1006A00010B584B008200121012400F0CFF801200A
:1006B000012100F0CBF82020C0F20340039040F667
:1006C0000040C4F2010003A9FFF77EFF01200521CD
:1006D000FFF75EFF202001904FF48050ADF8080036
:1006E00001A88DF80A40FFF71FFF40F21710C0F273
:1006F00001100090684600F007F804B010BD00003B
:10070000FEE700007047000010B5C17800294EF2E6
:100710000011CEF200011AD04EF60C52CEF20002B9
:100720001268072323EA12220F23C2F1040C23FAD2
:1007300002F24378847890F800E003FA0CF3224048
:100740001A43120101EB0E0383F8002300E080310D
:100750000078012300F01F0203FA02F2C0F34210F6
:1007600041F8202010BD000040F080604EF60C5192
:1007700040F0FD70CEF2000108607047B0B586B061
:1007800042F200444FF400700121C4F2010401253B
:1007900000F05CF80420012100F058F80120C0F2BC
:1007A00003000590A4F5E05005A9FFF70DFF002018
:1007B0004FF46021039002910090ADF80400694667
:1007C00020468DF81050FFF76DFD204600210122D4
:1007D0000723FFF791FD20460121FFF749FD204641
:1007E000FFF7BAFD2046FFF759FD0028FAD1204651
:1007F000FFF7C2FD2046FFF743FD0028FAD106B0FF
:10080000B0BD0000B0B542F20045C4F20105044697
:1008100028460121FFF7A6FD28460221FFF738FDF3
:100820000028F9D02846FFF72FFDA080B0BD0000BA
:1008300070470000002941F21C01C4F202010A685D
:100840000CBF22EA0000104308607047002941F203
:100850001801C4F202010A680CBF22EA000010432A
:100860000860704710B541F20404C4F20204226823
:1008700002F00C02082A41F20022C0F27A0212D1E0
:100880002368D4F800C0C3F3834E5FEACC330EF183
:10089000020C02D523689B0303D540F60012C0F278
:1008A0003D020CFB02F20260226841F2D013C2F357
:1008B0000312C0F600039A5C0168D14041602268CF
:1008C000C2F302229A5C21FA02F282602268C2F329
:1008D000C2229A5C41F2CC13D140C1602268C0F6BA
:1008E0000003C2F381329A5CB1FBF2F1016110BDE9
:1008F0007047000010B586B004200121FFF7A6FF65
:100900004FF480400121FFF7A1FF40F2002043F6A1
:100910000004C1F60300C4F201040590A4F54050A0
:1009200005A9FFF751FE4FF4E130019000204FF48C
:100930000021ADF81000CDE9020101A9204600F028
:100940003FF92046012100F02BF906B010BD000050
:1009500070B543F6000504460026C4F2010500BF49
:10096000A15D284600F088F92846802100F022F990
:100970000028F9D00136062E08BF70BDF0E7000050
:100980007047000082B041F20400C4F2020050F847
:10099000041C002241F0010140F8041C0168CFF65C
:1009A000FF021140016050F8041C4FF6FF72CFF6B1
:1009B000F662114040F8041C50F8041C21F4802118
:1009C00040F8041C016821F4FE0101604FF41F018E
:1009D000416000210191009150F8041C41F48031E4
:1009E00040F8041C50F8041C01F4003100910199F6
:1009F00001310191009919B90199B1F5A06FF1D1B7
:100A000050F8041C890354BF002101210091009972
:100A1000012936D142F20001C4F202010A6842F013
:100A200010020A600A6822F007020A600A6842F0AF
:100A300002020A600168016001680160016841F416
:100A400080610160016821F47C110160016841F45A
:100A5000E811016050F8041C41F0807140F8041C5A
:100A600050F8041C8901FBD5016821F003010160E5
:100A7000016841F002010160016801F00C010829E0
:100A8000FAD14EF60850CEF200004FF0006101603E
:100A900002B0704710B540F27004C2F20004204664
:100AA000FFF7B2FC2046FFF7ADFE4FF0804001217A
:100AB00000F00AF82046BDE81040FFF749BF0000EB
:100AC000C943018270470000C9430182704700009A
:100AD0000288002918BF012122F00102114401807F
:100AE00070470000002A82890CBF22EA01011143ED
:100AF0008181704740F6FF33B0F800C0C4F20003B4
:100B000098420FDCB0F1804F1ED040F20043C4F297
:100B10000003984218D040F60003C4F20003984244
:100B200012D016E040F60043C4F2000398420BD006
:100B300043F20043C4F20103984205D042F6004359
:100B4000C4F20103984204D14B882CF0700243EAAE
:100B5000020C41F2004240F48063C4F2000293426E
:100B600004D0CA882CF4407342EA030CA0F800C0F9
:100B70008A888285A0F18042A2F596320B884FEADE
:100B8000B222072A038507D8012303FA02F212F0E2
:100B9000E50F1CBF097A01860121818270470000A0
:100BA0008289002918BF012122F4005242EA413112
:100BB000818170470088084018BF012070470000FD
:100BC00070B586B00446008A0D46C98820F44050AE
:100BD00008432082A0894EF6F3110840A9882A898B
:100BE0006B89084310431843A081A08AA98920F487
:100BF0004070084301AEA0823046FFF733FE43F653
:100C0000000106F10800C4F201018C4208BF06F1A0
:100C10000C0000681922B4F90C1050432A68012313
:100C2000B1F1FF3FC8BF022302FA03F1B0FBF1F0BC
:100C300048F21F51C5F2EB11A0FB01235A096FF0D6
:100C4000630302FB0300B4F90C300326B3F1FF3F4A
:100C5000C8BF042600FA06F000F13200A0FB010133
:100C60004FF00700C8BF0F2000EA511040EA021001
:100C7000208106B070BD00006FF35F218180704756
:100C8000FEE70000002B08BF70472DE9F0474CF647
:100C9000CD4A1C469046894607465D420026CCF662
:100CA000CC4A17E00120B8FBF0F0A0FB0A12D208F2
:100CB00002EB8202A0EB420006EB090140F030009B
:100CC000C2B2C9B2384600F017F80136A64205F1A3
:100CD00001050DD0F0430019E4D00120294600BFE2
:100CE00000EB800001314A1C4FEA4000F8D1DAE7FE
:100CF000BDE8F047704700002DE9F04381B016468B
:100D00007E224FEA400802EB40006FF0070240F0FD
:100D1000B00002EBC104C0B2E5B200F0DDF8280972
:100D200000F11009484600F0D7F804F008052846FD
:100D300000F0D2F841F2E010C0F6000000EB061619
:100D4000A6F20127082400BF17F8010F00F01CF8D5
:100D5000013CF9D1A8F1010040F0B000C0B200F0B0
:100D6000BBF8484600F0B8F8284600F0B5F8A6F2FF
:100D7000F914082514F8010F00F006F8013DF9D127
:100D800001B0BDE8F0830000F0B581B040F600444A
:100D9000C4F20104054620464FF400710122FFF71A
:100DA00077FC20464FF480710122FFF771FC20464A
:100DB0004FF4007100220026FFF76AFC20464FF432
:100DC00080710022FFF764FC802700BF27FA06F03D
:100DD00000F0780220464FF40071FFF759FC2046DE
:100DE0004FF480710122FFF753FC20464FF48071CD
:100DF0000022FFF74DFC0136082EE7D120464FF4C4
:100E000080710122FFF744FC20464FF480710022DC
:100E10000026FFF73DFC802727FA06F000F040028D
:100E200020464FF40071FFF733FC20464FF48071E9
:100E30000122FFF72DFC20464FF480710022FFF7BE
:100E400027FC0136082EE7D120464FF4807101229D
:100E5000FFF71EFC20464FF4807100220026FFF7AA
:100E600017FC802727FA06F000EA050220464FF417
:100E70000071FFF70DFC20464FF480710122FFF74F
:100E800007FC20464FF480710022FFF701FC013679
:100E9000082EE7D120464FF480710122FFF7F8FBBE
:100EA00020464FF480710022FFF7F2FB20464FF4FA
:100EB00000710022FFF7ECFB20464FF48071012205
:100EC000FFF7E6FB20464FF40071012201B0BDE8B8
:100ED000F040FFF7DDBB0000F0B581B040F6004404
:100EE000C4F20104054620464FF400710122FFF7C9
:100EF000CFFB20464FF480710122FFF7C9FB20464B
:100F00004FF4007100220026FFF7C2FB20464FF489
:100F100080710022FFF7BCFB802700BF27FA06F094
:100F200000F0780220464FF40071FFF7B1FB204635
:100F30004FF480710122FFF7ABFB20464FF4807124
:100F40000022FFF7A5FB0136082EE7D120464FF41B
:100F500080710122FFF79CFB20464FF48071002234
:100F6000FFF796FB082600BF20464FF400710022D1
:100F7000FFF78EFB20464FF480710122FFF788FBBC
:100F800020464FF480710022FFF782FB013EEBD137
:100F900020464FF480710122FFF77AFB20464FF480
:100FA000807100220026FFF773FB802727FA06F0E6
:100FB00000EA050220464FF40071FFF769FB204666
:100FC0004FF480710122FFF763FB20464FF48071DC
:100FD0000022FFF75DFB0136082EE7D120464FF4D3
:100FE00080710122FFF754FB20464FF480710022EC
:100FF000FFF74EFB20464FF400710022FFF748FB3D
:1010000020464FF480710122FFF742FB20464FF447
:101010000071012201B0BDE8F040FFF739BB0000CC
:10102000B0B582B008200121FFF710FC40F200109B
:1010300040F60044C1F20340C4F2010401AD019046
:1010400020462946FFF7C0FA4FF40070ADF80400BF
:1010500020462946FFF7B8FA20464FF48071012256
:10106000FFF716FB20464FF400710122FFF710FB3B
:10107000AE20FFF731FFD520FFF72EFF8020FFF7CE
:101080002BFFA820FFF728FF3F20FFF725FFD320E5
:10109000FFF722FF00200024FFF71EFF4020FFF78C
:1010A0001BFFA120FFF718FFC820FFF715FFDA206C
:1010B000FFF712FF1220FFF70FFF8120FFF70CFF51
:1010C000CF20FFF709FFD920FFF706FFF120FFF738
:1010D00003FFDB20FFF700FF3020FFF7FDFEA42019
:1010E000FFF7FAFEA620FFF7F7FE8D20FFF7F4FECC
:1010F0001420FFF7F1FEAF20FFF7EEFE44F0B00042
:10110000C0B2FFF7E9FE1020FFF7E6FE0020002541
:10111000FFF7E2FE0020FFF737FE681C45B2B5F18D
:10112000FF3FF7DCE0B201340728E7D302B0B0BDDF
:101130004FF4A060FFF718FBFFF7DCFBFFF724F983
:10114000FFF7AEFAFFF76CFFFFF718FB00F00CF8A3
:1011500040F27004C2F20004A2880120012104239D
:10116000FFF790FDF8E7000080B584B00120012171
:10117000FFF760FB40F2E730CDF80A0041F61F4070
:10118000CDF8060000208DF80E000DF106014FF09D
:101190008040FFF7AFFC4FF080400121FFF790FC4B
:1011A0001C20C0F20010CDF802000DF10200FFF784
:1011B000ABFA4FF0804001210122FFF793FC4FF082
:1011C00080400121FFF784FC04B080BD02040608C2
:1011D00000000000010203040102030406070809DD
:1011E00000000000000000000000000000000000FF
:1011F000000000F800000000000000333000000094
:1012000000100C06100C060000000000000000009A
:1012100040C07840C0784000043F04043F0404000C
:10122000007088FC08300000001820FF211E00001C
:10123000F008F000E018000000211C031E211E0031
:1012400000F00888700000001E21232419272110B7
:1012500010160E000000000000000000000000005A
:10126000000000E018040200000000071820400001
:1012700000020418E00000000040201807000000F1
:10128000404080F0804040000202010F0102020055
:10129000000000F0000000000101011F0101010039
:1012A000000000000000000080B07000000000009E
:1012B0000000000000000000000101010101010127
:1012C00000000000000000000030300000000000BE
:1012D0000000000080601804006018060100000093
:1012E00000E010080810E000000F102020100F0090
:1012F000001010F8000000000020203F2020000017
:10130000007008080888700000302824222130006E
:1013100000300888884830000018202020110E0076
:101320000000C02010F8000000070424243F24001F
:1013300000F80888880808000019212020110E00F4
:1013400000E0108888180000000F112020110E0006
:1013500000380808C83808000000003F00000000FE
:101360000070880808887000001C222121221C00BF
:1013700000E010080810E0000000312222110F00E8
:10138000000000C0C000000000000030300000007D
:1013900000000080000000000000806000000000ED
:1013A0000000804020100800000102040810200006
:1013B0004040404040404000040404040404040051
:1013C00000081020408000000020100804020100E6
:1013D000007048080808F0000000003036010000E6
:1013E000C030C828E810E0000718272423140B0099
:1013F0000000C038E0000000203C23020227382013
:1014000008F8888888700000203F202020110E00F6
:10141000C0300808080838000718202020100800ED
:1014200008F808080810E000203F202020100F00D6
:1014300008F88888E8081000203F202023201800A2
:1014400008F88888E8081000203F2000030000000A
:10145000C03008080838000007182020221E0200AB
:1014600008F808000008F808203F210101213F206A
:10147000000808F8080800000020203F2020000095
:1014800000000808F8080800C08080807F00000085
:1014900008F888C028180800203F200126382000BE
:1014A00008F8080000000000203F20202020300025
:1014B00008F8F800F8F80800203F003F003F20003F
:1014C00008F830C00008F808203F200007183F0047
:1014D000E01008080810E0000F10202020100F0076
:1014E00008F808080808F000203F21010101000069
:1014F000E01008080810E0000F18242438504F00AE
:1015000008F8888888887000203F2000030C30206D
:1015100000708808080838000038202121221C00AB
:10152000180808F8080818000000203F20000000F4
:1015300008F808000008F808001F202020201F00DD
:101540000878880000C83808000007380E0100003D
:10155000F80800F80008F800033C0700073C030007
:10156000081868808068180820302C03032C30206D
:101570000838C800C83808000000203F20000000DC
:1015800010080808C8380800203826212020180034
:10159000000000FE020202000000007F4040400008
:1015A000000C30C000000000000000010638C00040
:1015B00000020202FE000000004040407F000000E8
:1015C000000004020202040000000000000000000D
:1015D000000000000000000080808080808080800B
:1015E00000020204000000000000000000000000F3
:1015F00000008080808000000019242222223F20E9
:1016000008F8008080000000003F112020110E002B
:101610000000008080800000000E112020201100BA
:10162000000000808088F800000E112020103F206C
:101630000000808080800000001F222222221300F0
:10164000008080F0888888180020203F202000003B
:101650000000808080808000006B949494936000F0
:1016600008F8008080800000203F210000203F20FB
:1016700000809898000000000020203F20200000FB
:10168000000000809898000000C08080807F0000EB
:1016900008F8000080808000203F24022D302000C8
:1016A000000808F8000000000020203F2020000073
:1016B0008080808080808000203F20003F20003F8D
:1016C0008080008080800000203F210000203F209B
:1016D0000000808080800000001F202020201F004C
:1016E000808000808000000080FFA12020110E007B
:1016F0000000008080808000000E112020A0FF806C
:10170000808080008080800020203F212000010018
:10171000000080808080800000332424242419006D
:10172000008080E0808000000000001F202000007A
:101730008080000000808000001F202020103F20BB
:10174000808080000080808000010E30080601004B
:1017500080800080008080800F300C030C300F00F0
:1017600000808000808080000020312E0E3120001B
:10177000808080000080808080818E70180601004B
:1017800000808080808080000021302C2221300069
:1017900000000000807C020200000000003F40408A
:1017A00000000000FF00000000000000FF0000003B
:1017B0000002027C800000000040403F000000006A
:1017C0000006010102020404000000000000000005
:1017D000F017000800000020100000005001000871
:1017E00000180008100000206806000070010008C2
:1017F000AAAAAAAAAAAABBBBBBBBBBBB000000008B
:04000005080000ED02
:00000001FF
