:020000040800F2
:1000000080060020B5010008750700080D070008EC
:100010007107000891030008E50D000800000000CA
:10002000000000000000000000000000C1090008FE
:10003000F904000800000000E9080008A90A000807
:10004000CF010008CF010008CF010008CF01000850
:10005000CF010008CF010008CF010008CF01000840
:10006000CF010008CF010008CF010008CF01000830
:10007000CF010008CF010008CF010008CF01000820
:10008000CF010008CF010008CF010008CF01000810
:10009000CF010008CF010008CF01000821050008AA
:1000A000CF010008CF010008CF010008CF010008F0
:1000B000BD0B0008CF010008CF010008CF010008E8
:1000C000CF010008CF010008CF010008CF010008D0
:1000D000CF010008CF010008CF010008CF010008C0
:1000E000CF010008CF010008CF01000800F002F89E
:1000F00000F050F814A696E8000CB244B344DA4578
:1001000001D100F047F8BAE80F000FA696E83000DA
:10011000A5EB040504EB0607AAEB0704A7F101070A
:100120004FEA15154FEA3414A4F10104AC4201D38F
:1001300000F030F813F0010F18BFFB1A43F0010371
:1001400000F001F8DBE71847380D0000580D0000FB
:10015000103A24BF78C878C1FAD8520724BF30C8F3
:1001600030C144BF04680C60704700007047000055
:100170000023002400250026103A28BF78C1FBD8B0
:10018000520728BF30C148BF0B6070471FB51FBD65
:1001900010B510BD00F031F81146FFF7F7FF00F081
:1001A00023FE00F04FF803B4FFF7F2FF03BC00F0AA
:1001B00057F800000948804709480047FEE7FEE776
:1001C000FEE7FEE7FEE7FEE7FEE7FEE7FEE7FEE707
:1001D00004480549054A064B70470000AD0A00086F
:1001E000ED00000880000020800600208002002032
:1001F00080020020704770477047754600F02CF869
:10020000AE4605006946534620F00700854618B003
:1002100020B5FFF7DDFFBDE820404FF000064FF0AE
:1002200000074FF000084FF0000BAC46ACE8C009E7
:10023000ACE8C009ACE8C009ACE8C00921F007018E
:100240008D46704710B50446AFF300802046BDE8E8
:100250001040FFF7A8BF00000048704710000020C2
:1002600001491820ABBEFEE72600020070470000DF
:100270008268002922F0010218BF013282607047B3
:100280008268002922F4807218BF02F580728260B1
:10029000704700008068C0F3800070470068084025
:1002A00018BF0120704700008068C0F3C00070478D
:1002B00080B542684FF6FF63CFF6F07302EA030C95
:1002C0000B680A7943EA0C0343EA0222426082681F
:1002D0004FF2FD73CFF6F1731A40D1E902C391F8E2
:1002E00005E01A4342EA0C0242EA4E028260C26A08
:1002F000097C22F470020139C9B242EA0151C1629B
:1003000080BD0000B0B501EB410C4FF0100E092983
:1003100088BFACF11E0C88BF4FF00C0E50F80E4099
:10032000072505FA0CF5AC4303FA0CF323432C25FF
:100330006FF0400440F80E300D2A38BF302538BF2A
:100340006FF0220402EB8203072A3CBF34256FF0D2
:1003500004041A1943591F249440A343914019439C
:100360004151B0BD816841F00801816070470000D3
:100370008268002922F4A00218BF02F5A002826060
:1003800070470000816841F00401816070470000FF
:10039000FEE7000080B582B00820012100F0BEFA1F
:1003A00044F20000C1F20340019040F60040C4F264
:1003B000010001A900F040F902B080BD10B540F67F
:1003C0000044C4F2010420464FF48041002200F0B2
:1003D00097F9142000F092F820464FF48041012252
:1003E00000F08EF920464FF4804100F083F9002898
:1003F000F8D100BF20464FF4804100F07BF900287F
:10040000F8D000BF20464FF4804100F073F9002877
:10041000F8D110BDF0B581B040F600440546C4F2F5
:100420000104FFF7CBFF002603E000BF0136052ED5
:1004300026D0002704E0072F07F10107F6D200BFFE
:1004400020464FF4804100F055F90028F8D02820CC
:1004500000F054F8A85D4FF480414000A8552046B4
:1004600000F048F90128E6D1A85D0130A85500BF89
:1004700020464FF4804100F03DF90128F8D0DAE73A
:1004800020464FF4804100F035F90028F8D001B043
:10049000F0BD000002684FF6FE7C42F00103002927
:1004A00008BF02EA0C030360704700002DE9F04723
:1004B000026847F6F073D1E9026A9A4301F1100726
:1004C000B0CF01F11C0E3243D1E900899EE80A50F9
:1004D0001A4322432A433A43114341EA0C0141EAB9
:1004E0000E010160C0F804A0C0F80880C0F80C90AC
:1004F000BDE8F08741607047704700004EF2100180
:1005000000EBC000CEF20001C0004860002088600F
:10051000052008600868C003FCD504200860704707
:1005200010B5202000F028F8012818BF10BD40F6B3
:100530000044C4F201042046202100F0DBF8012829
:1005400004D140F20000C2F2000008E02046202161
:1005500000F0D0F828B940F20600C2F2000000F026
:100560008BFA2020BDE81040AFF3008040F2144128
:10057000C4F201010860704740F20041C4F2010179
:100580000A6849690240084018BF0120002A18BFC4
:1005900001221040704700008179002940F200419B
:1005A000C4F201011FD002680B6893430B604B68D3
:1005B00093434B60037943EA010CDCF800301A43A3
:1005C000CCF8002002688B6893438B60CB68934320
:1005D000CB60407910280ED1886810438860C868C5
:1005E0001043C86070470279006811430A6822EA24
:1005F00000000860704708430168114301607047BC
:1006000010B50C2240F2080E02EA810201F0FC0152
:10061000C4F2010E4FF00F0C51F80E400CFA02F329
:1006200024EA030341F80E3051F80E30904018438D
:1006300041F80E0010BD0000CA7802F00F0CD3067E
:1006400044BF8B784CEA030C2DE9F04709880B0670
:1006500025D082465AF8145B00F1100E00264FF0A8
:1006600001094FF00F08002706E000BF1C600137AA
:10067000082F06F1040611D009FA07F40C42F6D04F
:1006800008FA06F325EA03030CFA06F51D43282AA7
:100690005346EBD0482AEAD17346E7E70560B1F547
:1006A000807F38BFBDE8F087436800F1100E00F18D
:1006B000140A082500264FF001094FF00F0805E045
:1006C00027600135102D06F1040610D009FA05F750
:1006D0000F42F6D008FA06F4A3430CFA06F42343BB
:1006E000282A5446ECD0482AEBD17446E8E7436008
:1006F000BDE8F0878068084018BF012070470000FF
:100700001023002A08BF1423C1507047FEE70000E1
:1007100010B584B008200121012400F0FFF8012069
:10072000012100F0FBF82020C0F20340039040F6C6
:100730000040C4F2010003A9FFF77EFF012005215C
:10074000FFF75EFF202001904FF48050ADF80800C5
:1007500001A88DF80A40FFF71FFF40F21710C0F202
:1007600001100090684600F007F804B010BD0000CA
:10077000FEE700007047000010B5C17800294EF276
:100780000011CEF200011AD04EF60C52CEF2000249
:100790001268072323EA12220F23C2F1040C23FA62
:1007A00002F24378847890F800E003FA0CF32240D8
:1007B0001A43120101EB0E0383F8002300E080319D
:1007C0000078012300F01F0203FA02F2C0F3421086
:1007D00041F8202010BD000040F080604EF60C5122
:1007E00040F0FD70CEF2000108607047F0B591B0A6
:1007F00042F200444FF400700121C4F201040127C9
:1008000000F08CF80420012100F088F8012001217B
:1008100000F06CF80720C0F203001090A4F5E0503F
:1008200010A9FFF709FF4FF4602000250D90032663
:100830000BA920460E950B958DF83C60ADF83070F5
:10084000FFF736FD2046002101220723FFF75AFD5E
:100850002046012102220723FFF754FD20460221F2
:1008600003220723FFF74EFD40F27000C2F20000A2
:10087000043001904FF4806007908020059042F290
:100880004C40C4F2010000904FF48070069020208C
:100890000495CDE902560A95CDE908050825C4F26C
:1008A000020569462846FFF701FE20460121FFF7B1
:1008B000DFFC20460121FFF7E3FC28460121FFF77A
:1008C000E9FD2046FFF74EFD2046FFF7EDFC00282E
:1008D000FAD12046FFF756FD2046FFF7DBFC002843
:1008E000FAD111B0F0BD000070470000002941F2BC
:1008F0001401C4F202010A680CBF22EA000010438E
:1009000008607047002941F21C01C4F202010A6824
:100910000CBF22EA0000104308607047002941F232
:100920001801C4F202010A680CBF22EA0000104359
:100930000860704710B541F20404C4F20204226852
:1009400002F00C02082A41F20022C0F27A0212D10F
:100950002368D4F800C0C3F3834E5FEACC330EF1B2
:10096000020C02D523689B0303D540F60012C0F2A7
:100970003D020CFB02F20260226840F67063C2F393
:100980000312C0F600039A5C0168D14041602268FE
:10099000C2F302229A5C21FA02F282602268C2F358
:1009A000C2229A5C40F66C63D140C1602268C0F6F6
:1009B0000003C2F381329A5CB1FBF2F1016110BD18
:1009C00070470000B0B590B004200121FFF7A6FFEA
:1009D0004FF480400121FFF7A1FF01200121FFF723
:1009E00085FF40F2002043F60004C1F60300C4F284
:1009F00001040F90A4F540500FA9FFF71DFE4FF41E
:100A0000E1300B9000254FF40020CDE90C500BA9EC
:100A10002046ADF8385000F085F940F27000C2F27F
:100A2000000001908020059043F60400C4F201000C
:100A300000900A20079506950495039010200A95CA
:100A40000895442502904FF40050C4F20205099025
:100A500069462846FFF72AFD20468021012200F042
:100A600053F92046012100F045F928460021FFF7FF
:100A700011FD10B0B0BD000070B543F6000504468E
:100A80000026C4F2010500BFA15D284600F0A6F9CA
:100A90002846802100F040F90028F9D001360A2EBE
:100AA00008BF70BDF0E700007047000082B041F25F
:100AB0000400C4F2020050F8041C002241F00101BD
:100AC00040F8041C0168CFF6FF021140016050F8A5
:100AD000041C4FF6FF72CFF6F662114040F8041C7A
:100AE00050F8041C21F4802140F8041C016821F412
:100AF000FE0101604FF41F0141600021019100914E
:100B000050F8041C41F4803140F8041C50F8041CD7
:100B100001F400310091019901310191009919B955
:100B20000199B1F5A06FF1D150F8041C890354BFAD
:100B30000021012100910099012936D142F20001E2
:100B4000C4F202010A6842F010020A600A6822F048
:100B500007020A600A6842F002020A600168016046
:100B600001680160016841F480610160016821F45D
:100B70007C110160016841F4E811016050F8041C27
:100B800041F0807140F8041C50F8041C8901FBD529
:100B9000016821F003010160016841F00201016078
:100BA000016801F00C010829FAD14EF60850CEF286
:100BB00000004FF00061016002B0704710B540F2D4
:100BC000700042F20044C2F20000C4F20104FFF7D8
:100BD00021FC20460121FFF7CBFB00BF204602216C
:100BE000FFF75CFB0028F9D04424C4F2020420463D
:100BF0000021FFF74FFC20460A21FFF77BFC20462F
:100C00000121FFF747FC4FF080400121BDE8104073
:100C100000F004B8C943018270470000C943018253
:100C2000704700000288002918BF012122F001024C
:100C30001144018070470000002A82890CBF22EA1B
:100C4000010111438181704740F6FF33B0F800C0C5
:100C5000C4F2000398420FDCB0F1804F1ED040F286
:100C60000043C4F20003984218D040F60003C4F2D7
:100C70000003984212D016E040F60043C4F200038D
:100C800098420BD043F20043C4F20103984205D0CE
:100C900042F60043C4F20103984204D14B882CF081
:100CA000700243EA020C41F2004240F48063C4F255
:100CB0000002934204D0CA882CF4407342EA030C29
:100CC000A0F800C08A888285A0F18042A2F5963201
:100CD0000B884FEAB222072A038507D8012303FABB
:100CE00002F212F0E50F1CBF097A01860121818210
:100CF000704700008289002918BF012122F40052A8
:100D000042EA413181817047002A828A0CBF22EA7F
:100D100001011143818270470088084018BF0120FB
:100D20007047000070B586B00446008A0D46C98839
:100D300020F4405008432082A0894EF6F311084069
:100D4000A9882A896B89084310431843A081A08A87
:100D5000A98920F44070084301AEA0823046FFF715
:100D6000E9FD43F6000106F10800C4F201018C42DE
:100D700008BF06F10C0000681922B4F90C105043AA
:100D80002A680123B1F1FF3FC8BF022302FA03F131
:100D9000B0FBF1F048F21F51C5F2EB11A0FB0123AB
:100DA0005A096FF0630302FB0300B4F90C30032609
:100DB000B3F1FF3FC8BF042600FA06F000F132008D
:100DC000A0FB01014FF00700C8BF0F2000EA51103F
:100DD00040EA0210208106B070BD00006FF35F2171
:100DE00081807047FEE700004FF4A060FFF7F4FC3D
:100DF000FFF7E8FDFFF7CEFAFFF78AFCFFF7F6FCF6
:100E000000F002F8FEE7000080B584B00120012167
:100E1000FFF778FD40F2E730CDF80A0041F61F40B9
:100E2000CDF8060000208DF80E000DF106014FF000
:100E30008040FFF709FF4FF080400121FFF7EAFEF5
:100E40001C20C0F20010CDF802000DF10200FFF7E7
:100E500093FC4FF0804001210122FFF7EDFE4FF09F
:100E600080400121FFF7DEFE04B080BD02040608C9
:100E70000000000001020304010203040607080940
:100E8000A00E000800000020100000005001000823
:100E9000B00E00081000002070060000700100086D
:100EA000AAAAAAAAAAAABBBBBBBBBBBB00000000E4
:04000005080000ED02
:00000001FF
