:020000040800F2
:1000000070060020B5010008CD0500086505000850
:10001000C905000871020008050B00080000000077
:1000200000000000000000000000000005070008BC
:10003000510300080000000045060008950700086D
:10004000CF010008CF010008CF010008CF01000850
:10005000CF010008CF010008CF010008CF01000840
:10006000CF010008CF010008CF010008CF01000830
:10007000CF010008CF010008CF010008CF01000820
:10008000CF010008CF010008CF010008CF01000810
:10009000CF010008CF010008CF0100087903000854
:1000A000CF010008CF010008CF010008CF010008F0
:1000B000A9080008CF010008CF010008CF010008FF
:1000C000CF010008CF010008CF010008CF010008D0
:1000D000CF010008CF010008CF010008CF010008C0
:1000E000CF010008CF010008CF01000800F002F89E
:1000F00000F050F814A696E8000CB244B344DA4578
:1001000001D100F047F8BAE80F000FA696E83000DA
:10011000A5EB040504EB0607AAEB0704A7F101070A
:100120004FEA15154FEA3414A4F10104AC4201D38F
:1001300000F030F813F0010F18BFFB1A43F0010371
:1001400000F001F8DBE71847EC0900000C0A00009A
:10015000103A24BF78C878C1FAD8520724BF30C8F3
:1001600030C144BF04680C60704700007047000055
:100170000023002400250026103A28BF78C1FBD8B0
:10018000520728BF30C148BF0B6070471FB51FBD65
:1001900010B510BD00F031F81146FFF7F7FF00F081
:1001A000B3FC00F04FF803B4FFF7F2FF03BC00F01C
:1001B00057F800000948804709480047FEE7FEE776
:1001C000FEE7FEE7FEE7FEE7FEE7FEE7FEE7FEE707
:1001D00004480549054A064B704700009907000886
:1001E000ED00000870000020700600207002002062
:1001F00070020020704770477047754600F02CF879
:10020000AE4605006946534620F00700854618B003
:1002100020B5FFF7DDFFBDE820404FF000064FF0AE
:1002200000074FF000084FF0000BAC46ACE8C009E7
:10023000ACE8C009ACE8C009ACE8C00921F007018E
:100240008D46704710B50446AFF300802046BDE8E8
:100250001040FFF7A8BF00000048704708000020CA
:1002600001491820ABBEFEE72600020070470000DF
:10027000FEE7000080B586B00820012100F0F0F90B
:100280000120012100F0E0F944F20000C1F2034036
:10029000059040F60040C4F2010005A900F0F8F80E
:1002A00040F2E730CDF80E0041F61F40CDF80A00CD
:1002B00000208DF812000DF10A014FF0804000F08F
:1002C0005BFB4FF08040012100F03CFB1C20C0F2A2
:1002D0000010CDF806000DF1060000F079F94FF09E
:1002E00080400121012200F03FFB4FF080400121BE
:1002F00000F030FB06B080BD10B540F60044C4F2FB
:10030000010420464FF48041002200F025F914201A
:1003100000F020F820464FF48041012200F01CF943
:1003200020464FF4804100F011F90028F8D100BFB9
:1003300020464FF4804100F009F90028F8D000BFB2
:1003400020464FF4804100F001F90028F8D110BD9B
:10035000704700004EF2100100EBC000CEF2000129
:10036000C000486000208860052008600868C0035D
:10037000FCD504200860704710B5202000F028F854
:10038000012818BF10BD40F60044C4F20104204605
:10039000202100F0DBF8012804D140F20000C2F275
:1003A000000008E02046202100F0D0F828B940F2F3
:1003B0000400C2F2000000F0D5F92020BDE8104092
:1003C000AFF3008040F21441C4F2010108607047AD
:1003D00040F20041C4F201010A6849690240084044
:1003E00018BF0120002A18BF0122104070470000EA
:1003F0008179002940F20041C4F201011FD0026856
:100400000B6893430B604B6893434B60037943EA5B
:10041000010CDCF800301A43CCF8002002688B682D
:1004200093438B60CB689343CB60407910280ED107
:10043000886810438860C8681043C86070470279B4
:10044000006811430A6822EA000008607047084308
:10045000016811430160704710B50C2240F2080E8C
:1004600002EA810201F0FC01C4F2010E4FF00F0C10
:1004700051F80E400CFA02F324EA030341F80E305F
:1004800051F80E309040184341F80E0010BD0000A6
:10049000CA7802F00F0CD30644BF8B784CEA030CE9
:1004A0002DE9F04709880B0625D082465AF8145BDF
:1004B00000F1100E00264FF001094FF00F08002741
:1004C00006E000BF1C600137082F06F1040611D0BA
:1004D00009FA07F40C42F6D008FA06F325EA0303FA
:1004E0000CFA06F51D43282A5346EBD0482AEAD1D8
:1004F0007346E7E70560B1F5807F38BFBDE8F08758
:10050000436800F1100E00F1140A082500264FF090
:1005100001094FF00F0805E027600135102D06F1A5
:10052000040610D009FA05F70F42F6D008FA06F4CF
:10053000A3430CFA06F42343282A5446ECD0482A55
:10054000EBD17446E8E74360BDE8F0878068084077
:1005500018BF0120704700001023002A08BF142391
:10056000C1507047FEE7000010B584B0082001219B
:10057000012400F075F80120012100F071F820201D
:10058000C0F20340039040F60040C4F2010003A90A
:10059000FFF77EFF01200521FFF75EFF202001907D
:1005A0004FF48050ADF8080001A88DF80A40FFF71D
:1005B0001FFF40F21710C0F201100090684600F0D3
:1005C00007F804B010BD0000FEE70000704700000F
:1005D00010B5C17800294EF20011CEF200011AD0F8
:1005E0004EF60C52CEF200021268072323EA1222C2
:1005F0000F23C2F1040C23FA02F24378847890F8B6
:1006000000E003FA0CF322401A43120101EB0E033F
:1006100083F8002300E080310078012300F01F02FE
:1006200003FA02F2C0F3421041F8202010BD00008E
:1006300040F080604EF60C5140F0FD70CEF20001AB
:100640000860704770470000002941F21C01C4F2A5
:1006500002010A680CBF22EA0000104308607047DC
:10066000002941F21801C4F202010A680CBF22EA13
:10067000000010430860704710B541F20404C4F252
:100680000204226802F00C02082A41F20022C0F2A1
:100690007A0212D12368D4F800C0C3F3834E5FEA14
:1006A000CC330EF1020C02D523689B0303D540F630
:1006B0000012C0F23D020CFB02F20260226840F61A
:1006C0002233C2F30312C0F600039A5C0168D140E2
:1006D00041602268C2F302229A5C21FA02F282602F
:1006E0002268C2F3C2229A5C40F61E33D140C16038
:1006F0002268C0F60003C2F381329A5CB1FBF2F1CA
:10070000016110BD7047000010B586B004200121C2
:10071000FFF7A6FF4FF480400121FFF7A1FF40F251
:10072000002043F60004C1F60300C4F20104059062
:10073000A4F5405005A9FFF7ABFE4FF4E13001905E
:1007400000204FF40021ADF81000CDE9020101A90D
:10075000204600F077F92046012100F063F906B049
:1007600010BD000070B543F6000504460026C4F233
:10077000010500BFA15D284600F0C0F92846802190
:1007800000F05AF90028F9D00136042E08BF70BDD8
:10079000F0E700007047000082B041F20400C4F2AC
:1007A000020050F8041C002241F0010140F8041C32
:1007B0000168CFF6FF021140016050F8041C4FF6AB
:1007C000FF72CFF6F662114040F8041C50F8041C8A
:1007D00021F4802140F8041C016821F4FE0101602D
:1007E0004FF41F01416000210191009150F8041C59
:1007F00041F4803140F8041C50F8041C01F400312D
:100800000091019901310191009919B90199B1F54E
:10081000A06FF1D150F8041C890354BF00210121BD
:1008200000910099012936D142F20001C4F202017F
:100830000A6842F010020A600A6822F007020A60A1
:100840000A6842F002020A60016801600168016002
:10085000016841F480610160016821F47C1101604C
:10086000016841F4E811016050F8041C41F0807106
:1008700040F8041C50F8041C8901FBD5016821F0E4
:1008800003010160016841F002010160016801F0AB
:100890000C010829FAD14EF60850CEF200004FF0B4
:1008A0000061016002B07047F0B581B040F60044CD
:1008B000C4F20104FFF720FD40F268060025C2F2F1
:1008C000000602E00135052D2BD0002704E0072F9C
:1008D00007F10107F6D200BF20464FF48041FFF731
:1008E00035FE0028F8D02820FFF734FD705D4FF466
:1008F0008041400070552046FFF728FE0128E6D1D0
:10090000705D0130705500BF20464FF48041FFF705
:100910001DFE0128F8D0DAE74FF08040012100F0F9
:1009200015F820464FF48041FFF710FE0028F3D061
:1009300040F26800C2F2000001B0BDE8F040FFF7ED
:1009400011BF0000C943018270470000C943018202
:10095000704700000288002918BF012122F001021F
:100960001144018070470000002A82890CBF22EAEE
:10097000010111438181704740F6FF33B0F800C098
:10098000C4F2000398420FDCB0F1804F1ED040F259
:100990000043C4F20003984218D040F60003C4F2AA
:1009A0000003984212D016E040F60043C4F2000360
:1009B00098420BD043F20043C4F20103984205D0A1
:1009C00042F60043C4F20103984204D14B882CF054
:1009D000700243EA020C41F2004240F48063C4F228
:1009E0000002934204D0CA882CF4407342EA030CFC
:1009F000A0F800C08A888285A0F18042A2F59632D4
:100A00000B884FEAB222072A038507D8012303FA8D
:100A100002F212F0E50F1CBF097A018601218182E2
:100A2000704700008289002918BF012122F400527A
:100A300042EA4131818170470088084018BF012097
:100A40007047000070B586B00446008A0D46C9881C
:100A500020F4405008432082A0894EF6F31108404C
:100A6000A9882A896B89084310431843A081A08A6A
:100A7000A98920F44070084301AEA0823046FFF7F8
:100A8000FBFD43F6000106F10800C4F201018C42AF
:100A900008BF06F10C0000681922B4F90C1050438D
:100AA0002A680123B1F1FF3FC8BF022302FA03F114
:100AB000B0FBF1F048F21F51C5F2EB11A0FB01238E
:100AC0005A096FF0630302FB0300B4F90C300326EC
:100AD000B3F1FF3FC8BF042600FA06F000F1320070
:100AE000A0FB01014FF00700C8BF0F2000EA511022
:100AF00040EA0210208106B070BD00006FF35F2154
:100B000081807047FEE700004FF4A060FFF790FD82
:100B1000FFF7FAFDFFF7AEFBFFF726FDFEE7020445
:100B20000608000000000102030401020304060796
:100B300008090000580B0008000000200800000011
:100B400050010008600B0008080000206806000043
:100B50007001000800000000AAAAAAAABBBBBBBB88
:04000005080000ED02
:00000001FF
